:100000000C9435000C945D000C945D000C945D0024
:100010000C945D000C945D000C945D000C945D00EC
:100020000C945D000C945D000C945D000C945D00DC
:100030000C945D000C945D000C945D000C945D00CC
:100040000C9472020C945D000C9440020C941A0201
:100050000C945D000C945D000C945D000C945D00AC
:100060000C945D000C945D003D0411241FBECFEF85
:10007000D8E0DEBFCDBF21E0A4E2B1E001C01D9217
:10008000A13DB207E1F711E0A0E0B1E0E4EDFDE051
:1000900002C005900D92A432B107D9F710E0C5E374
:1000A000D0E004C02197FE010E94D604C433D107DA
:1000B000C9F70E94BC020C94E8060C940000CF9291
:1000C000DF92EF92FF920F931F93CF93DF936C0118
:1000D0007A018B01C0E0D0E0CE15DF0589F0D801B0
:1000E0006D918D01D601ED91FC910190F081E02D93
:1000F000C6010995892B11F47E0102C02196ECCF2F
:10010000C701DF91CF911F910F91FF90EF90DF908A
:10011000CF900895FC01918D828D981761F0828DAA
:10012000DF01A80FB11D5D968C91928D9F5F9F732B
:10013000928F90E008958FEF9FEF0895FC01918DCD
:10014000828D981731F0828DE80FF11D858D90E03A
:1001500008958FEF9FEF0895FC01918D228D892FD7
:1001600090E0805C9F4F821B91098F7399270895BF
:100170008EE291E00E94AC0021E0892B09F420E09E
:10018000822F0895FC01848DDF01A80FB11DA35AB1
:10019000BF4F2C91848D90E001968F739927848FA7
:1001A000A689B7892C93A089B1898C9180648C939E
:1001B000938D848D981306C00288F389E02D808189
:1001C0008F7D80830895EF92FF920F931F93CF93BB
:1001D000DF93EC0181E0888F9B8D8C8D981305C097
:1001E000E889F989808185FD24C0F62E0B8D10E009
:1001F0000F5F1F4F0F731127E02E8C8DE8120CC07C
:100200000FB607FCFACFE889F989808185FFF5CF21
:10021000CE010E94C200F1CF8B8DFE01E80FF11DCF
:10022000E35AFF4FF0820B8FEA89FB89808180625D
:1002300007C0EE89FF896083E889F989808180643D
:10024000808381E090E0DF91CF911F910F91FF902B
:10025000EF900895CF93DF93EC01888D8823C9F048
:10026000EA89FB89808185FD05C0A889B9898C91BF
:1002700086FD0FC00FB607FCF5CF808185FFF2CF5A
:10028000A889B9898C9185FFEDCFCE010E94C2006B
:10029000E7CFDF91CF91089580E090E0892B29F09E
:1002A0000E94B80081110C94000008953FB7F894A3
:1002B0008091290190912A01A0912B01B0912C01EC
:1002C00026B5A89B05C02F3F19F00196A11DB11DB1
:1002D0003FBFBA2FA92F982F8827820F911DA11DEC
:1002E000B11DBC01CD0142E0660F771F881F991F29
:1002F0004A95D1F708950E94D3060F931F93CF9389
:10030000DF93EC0188819981009729F02A813B8154
:100310002617370788F48B016F5F7F4F0E9409060D
:10032000009761F0998388831B830A832C813D8128
:10033000232B11F4FC01108281E001C080E0DF91E9
:10034000CF911F910F910895EF92FF920F931F93FA
:10035000CF93DF93FC01248135816115710511F480
:1003600080E019C041155105A9F07B01EC018A011B
:10037000020F131FB8010E947D01882389F3288191
:1003800039818C819D81B701820F931F0E94E10604
:100390001D830C8381E0DF91CF911F910F91FF901E
:1003A000EF900895CF93DF93EC01888199810097B6
:1003B00011F00E947105198218821D821C821B8215
:1003C0001A82DF91CF910895EF92FF920F931F93BE
:1003D000CF93DF93EC017B018A01BA010E947D017A
:1003E000811104C0CE010E94D20107C01D830C837D
:1003F000B701888199810E94E106CE01DF91CF91FA
:100400001F910F91FF90EF900895FC0111821082CF
:1004100013821282158214826115710551F0FB015D
:1004200001900020E9F73197AF01461B570B0C9460
:10043000E40108951F920F920FB60F9211242F938B
:100440003F934F935F936F937F938F939F93AF935C
:10045000BF93EF93FF938EE291E00E94C200FF9161
:10046000EF91BF91AF919F918F917F916F915F912C
:100470004F913F912F910F900FBE0F901F901895A5
:100480001F920F920FB60F9211242F938F939F9369
:10049000EF93FF93E0913E01F0913F018081E09165
:1004A0004401F091450182FD12C090818091470185
:1004B0008F5F8F7320914801821751F0E0914701BF
:1004C000F0E0E25DFE4F958F8093470101C080818F
:1004D000FF91EF919F918F912F910F900FBE0F90F1
:1004E0001F9018951F920F920FB60F9211242F9301
:1004F0003F938F939F93AF93BF93809125019091EA
:100500002601A0912701B09128013091240123E018
:10051000230F2D3720F40196A11DB11D05C026E83B
:10052000230F0296A11DB11D209324018093250164
:1005300090932601A0932701B0932801809129016F
:1005400090912A01A0912B01B0912C010196A11D3F
:10055000B11D8093290190932A01A0932B01B093A0
:100560002C01BF91AF919F918F913F912F910F904F
:100570000FBE0F901F901895CF93DF93CDB7DEB7C6
:10058000E2970FB6F894DEBF0FBECDBF789484B566
:10059000826084BD84B5816084BD85B5826085BD7F
:1005A00085B5816085BD80916E00816080936E000D
:1005B00010928100809181008260809381008091FF
:1005C00081008160809381008091800081608093B0
:1005D00080008091B10084608093B1008091B00070
:1005E00081608093B00080917A00846080937A006B
:1005F00080917A00826080937A0080917A00816095
:1006000080937A0080917A00806880937A001092BB
:10061000C100E0913E01F0913F0182E08083E091D2
:100620003A01F0913B011082E0913C01F0913D01D3
:100630008FEC808310924601E0914201F0914301DA
:1006400086E08083E0914001F091410180818061EA
:100650008083E0914001F091410180818860808336
:10066000E0914001F0914101808180688083E091B8
:100670004001F091410180818F7D808390E4B92E0B
:100680008E010F5F1F4F62E271E0CE018B960E94D8
:10069000050266E171E0CE0185960E940502B092E6
:1006A0007C0080917A00806480937A0080917A0047
:1006B00086FDFCCF80917800209179001C8A1B8AEE
:1006C0001E8A1D8A188E1F8A90E04AE0B801922B7C
:1006D0000E946A04F80101900020E9F73197AF0108
:1006E000401B510BB801CE0143960E94E40169E121
:1006F00071E0C8010E940502E090CB01F090CC01AE
:1007000089A59AA5E816F90620F4EDA1FEA1309777
:1007100029F410922D01EDE2F1E002C0EE0DFF1D73
:10072000D0806DE171E0CE014F960E9405021A8ED5
:10073000198E1C8E1B8E1E8E1D8E6F8D78A16115DD
:10074000710531F04BA15CA1CE0149960E94E401F4
:10075000D9AA1AAA41E050E0BE016F5C7F4FCE01DA
:1007600049960E94A401811104C0CE0149960E94BD
:10077000D2014D815E8169817A81CE0149960E94C4
:10078000A401811104C0CE0149960E94D2014F8973
:10079000588D6B897C89CE0149960E94A4018111F4
:1007A00004C0CE0149960E94D2014D8D5E8D698DA7
:1007B0007A8DCE018B960E94A401898D9A8D0E941C
:1007C00071058F8D98A10E94710589819A810E947F
:1007D00071058B899C890E947105EA94EF2829F4A0
:1007E0001092CC011092CB0106C081E090E0909372
:1007F000CC018093CB014FA558A96BA57CA58EE2B7
:1008000091E00E945F0042E050E060E271E08EE221
:1008100091E00E945F000E9456012B013C0188EE8E
:10082000C82E83E0D82EE12CF12C0E945601DC0169
:10083000CB0184199509A609B709883E9340A10503
:10084000B10558F081E0C81AD108E108F10828EE96
:10085000420E23E0521E611C711CC114D104E1043C
:10086000F10419F78DA19EA10E9471058BA59CA58D
:100870000E9471050E944C0106CFEEE2F1E0138266
:10088000128288EE93E0A0E0B0E084839583A68393
:10089000B7838AE091E09183808385EC90E095872F
:1008A000848784EC90E09787868780EC90E0918B3A
:1008B000808B81EC90E0938B828B82EC90E0958B27
:1008C000848B86EC90E0978B868B118E128E138E24
:1008D000148E0895BB274A3031F4992322F4BDE2E7
:1008E000909581959F4F0C947604BB27FB0155276B
:1008F000AA27880F991FAA1FA41710F0A41B83957D
:100900005051B9F7A05DAA3308F0A95DA1930097F3
:1009100079F7B111B1931192CB010C948F04DC01E2
:10092000FC01672F71917723E1F7329704C07C9126
:100930006D9370836291AE17BF07C8F308952F922D
:100940003F924F925F926F927F928F929F92AF925F
:10095000BF92CF92DF92EF92FF920F931F93CF93AC
:10096000DF93CDB7DEB7CA1BDB0B0FB6F894DEBF43
:100970000FBECDBF09942A88398848885F846E8469
:100980007D848C849B84AA84B984C884DF80EE80B3
:10099000FD800C811B81AA81B981CE0FD11D0FB6BC
:1009A000F894DEBF0FBECDBFED010895EE0FFF1F1F
:1009B0000590F491E02D0994CF93DF938230910557
:1009C00010F482E090E0E091CF01F091D00120E0BE
:1009D00030E0C0E0D0E0309711F1408151814817FC
:1009E0005907C0F04817590761F482819381209715
:1009F00019F09B838A832BC09093D0018093CF0101
:100A000026C02115310519F04217530718F49A0131
:100A1000BE01DF01EF010280F381E02DDCCF211563
:100A2000310509F1281B390B2430310590F4129659
:100A30008D919C9113976115710521F0FB019383B2
:100A4000828304C09093D0018093CF01FD01329640
:100A500044C0FD01E20FF31F8193919322503109AD
:100A60002D933C933AC02091CD013091CE01232BA0
:100A700041F420910201309103013093CE01209383
:100A8000CD0120910001309101012115310541F482
:100A90002DB73EB74091040150910501241B350B41
:100AA000E091CD01F091CE01E217F307A0F42E1BE7
:100AB0003F0B2817390778F0AC014E5F5F4F2417C2
:100AC000350748F04E0F5F1F5093CE014093CD0184
:100AD0008193919302C0E0E0F0E0CF01DF91CF91EC
:100AE00008950F931F93CF93DF93009709F48CC061
:100AF000FC013297138212820091CF011091D00134
:100B00000115110581F420813181820F931F2091FD
:100B1000CD013091CE012817390779F5F093CE0138
:100B2000E093CD0171C0D80140E050E0AE17BF079F
:100B300050F412962D913C911397AD01211531057A
:100B400009F1D901F3CF9D01DA013383228360815A
:100B50007181860F971F8217930769F4EC01288132
:100B60003981260F371F2E5F3F4F318320838A81C3
:100B70009B8193838283452B29F4F093D001E093EA
:100B8000CF0142C01396FC93EE931297ED01499169
:100B900059919E01240F351FE217F30771F48081EC
:100BA0009181840F951F029611969C938E9382815A
:100BB000938113969C938E931297E0E0F0E0D80116
:100BC00012968D919C911397009719F0F8018C0162
:100BD000F6CF8D919C9198012E5F3F4F820F931F0E
:100BE0002091CD013091CE012817390769F4309753
:100BF00029F41092D0011092CF0102C01382128208
:100C00001093CE010093CD01DF91CF911F910F91F1
:100C10000895A0E0B0E0EFE0F6E00C94A304EC014E
:100C2000009721F4CB010E94DC04B8C0FC01E60F60
:100C3000F71F9C0122503109E217F30708F4ACC0FA
:100C4000D9010D911C91119706171707B0F00530C7
:100C5000110508F49FC0C80104978617970708F488
:100C600099C002501109061B170B019311936D9344
:100C70007C93CF010E9471058DC05B01A01AB10A5F
:100C80004C01800E911EA091CF01B091D00140E0A7
:100C900050E0E12CF12C109709F44AC0A815B905D1
:100CA000D1F56D907C901197630182E0C80ED11C44
:100CB000CA14DB0480F1A3014A195B096A0182E0CE
:100CC000C80ED11C1296BC9012971396AC91B5E049
:100CD000CB16D10440F0B282A38351834083D90163
:100CE0006D937C930AC00E5F1F4FC301800F911F4D
:100CF000F90191838083EB2DFA2FE114F10431F097
:100D0000D7011396FC93EE93129744C0F093D00151
:100D1000E093CF013FC08D919C91119748175907DF
:100D200008F4AC017D0112960D90BC91A02DB3CFBB
:100D30008091CD019091CE0188159905E1F4461777
:100D40005707C8F48091000190910101009741F488
:100D50008DB79EB74091040150910501841B950BFE
:100D6000E817F907C8F4F093CE01E093CD01F9013B
:100D7000718360830FC0CB010E94DC047C0100976B
:100D800059F0A801BE010E94D806CE010E9471054B
:100D9000C70104C0CE0102C080E090E0CDB7DEB74D
:100DA000EEE00C94BF0481E090E0F8940C94E80627
:100DB000FB01DC0102C001900D9241505040D8F778
:100DC0000895FB01DC0101900D920020E1F70895E8
:040DD000F894FFCFC5
:100DD4000000D101800000000000E3005F00AC00CF
:100DE4008A009E002A012B2D00383A20004D510024
:040DF4000D0A0000E4
:00000001FF
